:100000000C94101A0C94411A0C94411A0C94411A35
:100010000C94411A0C94411A0C94411A0C94411AF4
:100020000C94411A0C94411A0C94411A0C94411AE4
:100030000C94411A0C94411A0C94411A0C94411AD4
:100040000C94411A0C947AA60C94411A0C94411AFF
:100050000C94411A0C94411A0C94D39E0C94EBEC22
:100060000C94411A0C94587A0C944E7A0C94411AC0
:100070000C94411A0C94411A0C94411A0C94411A94
:100080000C94FA520C94411A0C94411A0C94411A93
:100090000C94411A0C94411A0C94411A0C94411A74
:1000A0000C94411A0C94411A0C94CC520C94411AA1
:1000B0000C94411A0C94411A0C94411A0C949E52BF
:1000C0000C94411A0C94411A0C94411A0C94411A44
:1000D0000C94411A0C94411A0C94411A0C94411A34
:1000E0000C94411A084AD73B3BCE016E84BCBFFD3D
:1000F000C12F3D6C74319ABD56833DDA3D00C77FF8
:1001000011BED9E4BB4C3E916BAAAABE0000008090
:100110003F05A84CCDB2D44EB93836A9020C50B91F
:10012000918688083CA6AAAA2ABE000000803F004B
:100130000D942E080D94B3084E414E494E49545922
:10014000494E46CDCCCC3D0AD7233C17B7D13877A2
:10015000CC2B329595E6241FB14F0A0000204100B8
:1001600000C84200401C4620BCBE4CCA1B0E5AAE02
:10017000C59D7400407A10F35A00A0724E18090011
:1001800010A5D4E80000E87648170000E40B5402FC
:100190000000CA9A3B000000E1F505000080969837
:1001A00000000040420F000000A086010000001087
:1001B0002700000000E803000000006400000000C9
:1001C000000A00000000000100000000002C76D8AA
:1001D00088DC674F0823DFC1DFAE59E1B1B796E590
:1001E000E3E453C63AE651997696E8E6C28426EBF4
:1001F000898C9B62ED407C6FFCEFBC9C9F40F2BA07
:10020000A56FA5F490055A2AF75C936B6CF9676D9E
:10021000C11BFCE0E40D47FEF520E6B500D0ED90F3
:100220002E0300943577050080841E080000204EC0
:100230000A000000C80C333333330F986E12831159
:1002400041EF8D2114893BE65516CFFEE6DB18D130
:10025000844B381BF77C1D901DA4BBE42420328402
:10026000725E228100C9F124ECA1E53D274572723E
:100270006F722077726974696E6720746F204545CC
:1002800050524F4D210A00363726033C3D380E2E82
:10029000303E121A1C1824221E08440A054308097D
:1002A0000001627573793A20706175736564206628
:1002B0006F7220696E7075740A00627573793A20E6
:1002C00070617573656420666F7220757365720A5C
:1002D00000627573793A2070726F63657373696E2B
:1002E000670A0053544F505045442E200050726905
:1002F0006E7465722073746F7070656420647565C8
:1003000020746F206572726F72732E204669782098
:10031000746865206572726F7220616E64207573F7
:1003200065204D39393920746F207265737461729C
:10033000742E202854656D70657261747572652025
:1003400069732072657365742E2053657420697417
:100350002061667465722072657374617274696E6F
:1003600067290A004E6F20436865636B73756D20C3
:1003700077697468206C696E65206E756D62657250
:100380002C204C617374204C696E653A20004E6FCE
:1003900020436865636B73756D2077697468206CA2
:1003A000696E65206E756D6265722C204C61737488
:1003B000204C696E653A2000636865636B73756DE8
:1003C000206D69736D617463682C204C61737420B7
:1003D0004C696E653A20004C696E65204E756D6201
:1003E0006572206973206E6F74204C617374204CA9
:1003F000696E65204E756D6265722B312C204C61E3
:100400007374204C696E653A20004D313130004DD7
:10041000313137004D33310053442072656164201F
:100420006572726F720A00446F6E65207072696E39
:1004300074696E672066696C650A002121204B494A
:100440004C4C20636175736564206279204B494C84
:100450004C20627574746F6E2F70696E0A002121D2
:10046000204B494C4C206361757365642062792090
:10047000746F6F206D75636820696E61637469764F
:10048000652074696D65202D2063757272656E74C8
:1004900020636F6D6D616E643A2000506C6561730E
:1004A00065205265736574005052494E5445522080
:1004B00048414C5445440025533A202553004B49AC
:1004C0004C4C45442E20005072696E746572206851
:1004D000616C7465642E206B696C6C2829206361E3
:1004E0006C6C6564210A0053544F505045442E20D3
:1004F000005072696E7465722073746F70706564F9
:100500002064756520746F206572726F72732E207F
:1005100046697820746865206572726F7220616E1A
:100520006420757365204D39393920746F207265E8
:1005300073746172742E202854656D7065726174D5
:100540007572652069732072657365742E2053651A
:1005500074206974206166746572207265737461B9
:100560007274696E67290A006563686F3A004572A4
:10057000726F723A0021212053544F502063616CF6
:100580006C65642062656361757365206F662042E7
:100590004C546F756368206572726F72202D2072E3
:1005A0006573746172742077697468204D393939C4
:1005B0000A0021212053544F502063616C6C656404
:1005C0002062656361757365206F6620424C546FCD
:1005D000756368206572726F72202D207265737466
:1005E0006172742077697468204D3939390A000ABC
:1005F0000A426564204C6576656C20436F727265B3
:100600006374696F6E204D61747269783A000A43B1
:100610006F72726563746564204265642048656921
:100620006768742076732E2042656420546F706F63
:100630006C6F67793A0A000A426564204865696709
:10064000687420546F706F6772617068793A0A201D
:1006500020202B2D2D2D204241434B202D2D2B0AC8
:100660002020207C20202020202020202020207CD2
:100670000A204C207C20202020282B2920202020EC
:100680007C20520A2045207C202020202020202071
:100690002020207C20490A2046207C20282D29204B
:1006A0004E20282B29207C20470A2054207C202003
:1006B0002020202020202020207C20480A202020CC
:1006C0007C20202020282D29202020207C20540A36
:1006D0002020207C20202020202020202020207C62
:1006E0000A2020204F2D2D2046524F4E54202D2DD4
:1006F0002B0A2028302C30290A000A4D65616E2013
:100700006F662073616D706C656420706F696E74C4
:10071000733A200020643A200020623A200045719C
:100720006E20636F656666696369656E74733A20EF
:10073000613A200050726F62696E6720506F696E77
:10074000740025532025692F2569002E0A002F00EB
:1007500050726F62696E67206D65736820706F6993
:100760006E742000202844525952554E29004732B9
:1007700039204175746F20426564204C6576656C44
:10078000696E67003F20284C2C522C462C422920B1
:100790006F7574206F6620626F756E64732E0A0029
:1007A0003F50726F626520706F696E7473202859B4
:1007B0002920696D706C61757369626C65202832DF
:1007C0002D33292E0A003F50726F626520706F69C9
:1007D0006E74732028582920696D706C6175736977
:1007E000626C652028322D33292E0A003F285629B5
:1007F0006572626F7365206C6576656C20696D70DB
:100800006C61757369626C652028302D34292E0A5D
:100810000020496E76616C69642065787472756435
:10082000657220004361703A0047322F47332062DF
:10083000616420706172616D65746572730A00296C
:100840000A0020746F20003F5A206F7574206F6675
:100850002072616E6765202800290A0020746F20CD
:10086000003F59206F7574206F662072616E676556
:1008700020282D00290A0020746F20003F58206F87
:100880007574206F662072616E676520282D005098
:10089000726F6265204F6666736574205800220A85
:1008A00000656E7175657565696E672022006F6BF6
:1008B00000526573656E643A200020573A00426525
:1008C0006420436F6F6C696E672E2E2E0042656444
:1008D0002048656174696E672E2E2E00236465665C
:1008E000696E652044454641554C545F006265641D
:1008F000004B6420004B6920004B7020005049449D
:10090000204175746F74756E652066696E697368D1
:100910006564212050757420746865206C6173745F
:10092000204B702C204B6920616E64204B64206347
:100930006F6E7374616E74732066726F6D20626582
:100940006C6F7720696E746F20436F6E6669677590
:10095000726174696F6E2E680A00504944204175B7
:10096000746F74756E65206661696C6564212074AE
:10097000696D656F75740A00546865726D616C20ED
:1009800052756E617761790048656174696E6720A0
:100990006661696C656400504944204175746F74E8
:1009A000756E65206661696C6564212054656D70A3
:1009B0006572617475726520746F6F20686967680D
:1009C0000A00204B643A2000204B693A2000204B5B
:1009D000703A20000A20436C6173736963205049A8
:1009E00044200A00204B643A2000204B693A200042
:1009F000204B703A20000A204E6F206F766572738C
:100A0000686F6F740A002054753A2000204B753AC5
:100A10002000206D61783A2000206D696E3A200038
:100A200020643A200020626961733A2000504944F2
:100A3000204175746F74756E652073746172740AE9
:100A400000504944204175746F74756E652066616D
:100A5000696C6564212054656D706572617475728E
:100A60006520746F6F20686967680A0050494420E8
:100A70004175746F74756E65206661696C6564217B
:100A800020426164206578747275646572206E75A9
:100A90006D6265720A004572723A2075746638207C
:100AA000666F6E74206E6F7420696E697469616C14
:100AB000697A65642E004572723A20757466382032
:100AC000666F6E74206E6F7420696E697469616CF4
:100AD000697A65642E004572723A20757466382012
:100AE000666F6E74206E6F7420696E697469616CD4
:100AF000697A65642E0046696C2E204469612E2057
:100B00002A0046696C2E204469612E004520696EDA
:100B1000206D6DC2B3002008204661637400200878
:100B2000204D6178002008204D696E004F666600F8
:100B30004F6E004175746F74656D7000565472612C
:100B400076204D696E00566D696E00566D61782095
:100B50004500566D6178205A00566D617820590025
:100B6000566D6178205800416D6178204500416DD7
:100B70006178205A00416D6178205900416D61789B
:100B8000205800412D54726176656C00412D5265EC
:100B9000747261637400416363656C0056652D4A2D
:100BA00065726B00565A2D4A65726B0056592D4A74
:100BB00065726B0056582D4A65726B0045737465FB
:100BC00070732F6D6D005A73746570732F6D6D00A7
:100BD0005973746570732F6D6D00587374657073FD
:100BE0002F6D6D00416476616E636564205365749A
:100BF00074696E6773003F0043616E63656C004902
:100C00006E6974004D34323800496E697469616CE4
:100C1000697A6520454550524F4D0046696C616DBB
:100C2000656E740054656D706572617475726500EF
:100C300053746570732F6D6D004A65726B0041636C
:100C400063656C65726174696F6E0056656C6F6385
:100C50006974790053657420486F6D65204F66662E
:100C60007365747300436F6E66696775726174694A
:100C70006F6E003F004E65787420506F696E74008F
:100C8000446F6E65004E65787400486F6D696E67DD
:100C90002058595A005A20526169736500436D64A7
:100CA0003A2053746F7700436D643A204465706C4A
:100CB0006F7900436D643A2053572D4D6F64650082
:100CC000436D643A2053656C662D5465737400431C
:100CD0006D643A20526573657400426564004E6F1E
:100CE0007A7A6C650046616E2053706565640043D6
:100CF0006F6E66696775726174696F6E004C6F61C3
:100D0000642053657474696E677300526573746F01
:100D10007265206661696C736166650053746F72F9
:100D2000652053657474696E6773005072656865F9
:100D300061742041425320436F6E660050726568B3
:100D400065617420504C4120436F6E6600546F6F94
:100D50006C204368616E676500424C546F75636830
:100D60000050726F6265205A204F6666736574008A
:100D7000416476616E6365642053657474696E675F
:100D800073004D61696E003F004261636B005374F4
:100D90006F70005072696E742066726F6D204D65C1
:100DA000646961004D3231004368616E6765204DB2
:100DB0006564696100436F6E666967757261746925
:100DC0006F6E0054656D7065726174757265004D6B
:100DD0006F74696F6E00526573756D65205072692E
:100DE0006E74004E6F204D656469610054756E65C8
:100DF0000053746F70205072696E74005061757387
:100E000065205072696E7400496E666F205363727C
:100E100065656E003F005374617274205072696E94
:100E2000740043616E63656C005072696E740043B8
:100E3000616E6E6F7420656E746572207375626486
:100E400069723A2000022E2E004D61696E004578CD
:100E5000747275646572202A004D6F74696F6E003C
:100E60004D38340044697361626C65205374657059
:100E700070657273004C6576656C20436F726E65A9
:100E80007273004F6666004F6E00426564204C65C9
:100E900076656C696E67004732380A473239004C14
:100EA0006576656C2042656400473238205A0048F8
:100EB0006F6D65205A00473238205900486F6D65C4
:100EC000205900473238205800486F6D652058007F
:100ED000473238004175746F20486F6D65004D6171
:100EE000696E005072656865617420504C41204500
:100EF0006E64005072656865617420504C412042F8
:100F000065640050726568656174204142532045F4
:100F10006E640050726568656174204142532042DE
:100F200065640054656D7065726174757265004327
:100F30006F6F6C646F776E005072656865617420C6
:100F4000414253005072656865617420504C410005
:100F500053746F7265642046616E203D0046616E79
:100F600020537065656400426564004E6F7A7A6C48
:100F700065205374616E646279004E6F7A7A6C6595
:100F8000004D61696E00466C6F77207E00466C6F85
:100F9000770053746F7265642046616E203D004691
:100FA000616E20537065656400426564004E6F7A1F
:100FB0007A6C65205374616E646279004E6F7A7A40
:100FC0006C65005370656564004D61696E00000CCE
:100FD0000D00FE07022603BC017FFE08FE08FE0589
:100FE000080806000040F0C88888987810050808AE
:100FF000060000C0F88888888888F805050506007E
:10100000012030F830200508080600002070F82084
:10101000202020E00509090600FF2070A8A8B88854
:10102000887020050606060001E08CEA8C8A0A0515
:1010300009090600FFF8A88888888888A8F8050AA2
:101040000A0600FE205050505088A8A8887003035C
:101050000306000340A040FFFFFFFFFFFFFFFFFF6D
:10106000FFFFFFFFFFFFFFFFFFFFFFFFFF0000008D
:101070000605FF010707060200808080808000804F
:10108000030303060105A0A0A00506060600005004
:10109000F85050F8500509090600FF2070A8A0700C
:1010A00028A87020050707060000C8C8102040982F
:1010B0009805070706000040A0A040A8906801031B
:1010C000030602058080800309090601FF204040D5
:1010D0008080804040200309090601FF80404020B5
:1010E000202040408005070706000020A8702070DF
:1010F000A8200505050600012020F8202002030392
:101100000601FFC04080050101060003F80202024B
:10111000060100C0C00507070600000810102040A7
:101120004080050707060000708898A8C8887003EB
:10113000070706010040C040404040E005070706A1
:101140000000708808102040F8050707060000F826
:10115000081030088870050707060000103050900E
:10116000F81010050707060000F880F008088870DE
:10117000050707060000304080F0888870050707E3
:10118000060000F8081010202020050707060000C0
:101190007088887088887005070706000070888846
:1011A00078081060020505060100C0C000C0C0023A
:1011B00006060601FFC0C000C04080030505060109
:1011C000012040804020050303060002F800F803D8
:1011D0000505060101804020408005070706000044
:1011E000708810202000200507070600007088B8CE
:1011F000A8B88070050707060000708888F88888FE
:1012000088050707060000F04848704848F00507C1
:101210000706000070888080808870050707060038
:1012200000F04848484848F0050707060000F880E5
:1012300080F08080F8050707060000F88080F080C5
:1012400080800507070600007088808098887005F8
:101250000707060000888888F8888888030707063B
:101260000100E04040404040E0050707060000382C
:101270001010101090600507070600008890A0C0AD
:10128000A09088050707060000808080808080F895
:1012900005070706000088D8A888888888050707FA
:1012A0000600008888C8A8988888050707060000F7
:1012B00070888888888870050707060000F088888D
:1012C000F080808005070706000070888888A89055
:1012D00068050707060000F08888F0A090880507D9
:1012E00007060000708880700888700507070600F0
:1012F00000F820202020202005070706000088880D
:1013000088888888700507070600008888888850C4
:10131000502005070706000088888888A8A850057F
:1013200007070600008888502050888805070706B0
:10133000000088885020202020050707060000F8BC
:101340000810204080F80309090601FFE080808032
:1013500080808080E0050707060000804040201064
:1013600010080309090601FFE0202020202020208A
:10137000E00503030600052050880501010600FE74
:10138000F80303030601058040200505050600005B
:1013900070087888780507070600008080F0888844
:1013A00088F0050505060000708080887005070735
:1013B000060000080878888888780505050600007A
:1013C0007088F08070050707060000304840E04054
:1013D00040400507070600FE708888887808700579
:1013E00007070600008080F08888888803070706C2
:1013F00001004000C0404040E00409090601FE1021
:101400000030101010109060050707060000808063
:101410008890E09088030707060100C040404040E4
:1014200040E0050505060000D0A8A8A8A805050508
:10143000060000B0C8888888050505060000708889
:101440008888700507070600FEF0888888F080808D
:101450000507070600FE78888888780808050505CE
:10146000060000B0C8808080050505060000788071
:101470007008F00507070600002020F8202020183B
:10148000050505060000888888986805050506009A
:101490000088888850200505050600008888A8A8CF
:1014A00050050505060000885020508805070706EE
:1014B00000FE88888850204080050505060000F859
:1014C000102040F80309090601FF204040408040F9
:1014D0004040200109090602FF80808080808080D2
:1014E00080800309090601FF8040404020404040C1
:1014F0008005030306000248A890FF5072696E74CD
:1015000020506175736564002568753A253032682E
:10151000750025303268753A2530326875002568C7
:1015200075642025303268753A25303268750020A0
:101530002020202020200020202020001FE020103C
:1015400020102010102010202010201030300840D3
:10155000048003001FE03FF03FF03FF01FE01FE07A
:101560003FF03FF03FF00FC0078003003FFFF0382F
:10157000007030FC3020FC102078102030102C003F
:10158000D02E31D02F7BD02F7BD02E31D02C00D03D
:1015900020301020781020FC1030FC303800703FD4
:1015A000FFF03FFFF0380070318630238710278727
:1015B000902F87D02F03D020301020781020781063
:1015C0002030102F03D02F87D0278790238710310A
:1015D00086303800703FFFF01FFFF81FFFF804103F
:1015E000400208200208200410400820801041001A
:1015F0001041000820800410400000001FFFF81F69
:10160000FFF84D656469612052656D6F7665640011
:101610004D6564696120496E736572746564003359
:101620004461727461207072696E746572205265D3
:101630006164792E005072696E74696E672E2E2E69
:10164000005072696E742041626F72746564004D5F
:101650003235005061757365205072696E740029CF
:101660000A002062797465733B2063726320005323
:10167000657474696E67732053746F726564202893
:1016800000454550524F4D206461746173697A651D
:10169000206572726F722E0A00290A002062797426
:1016A00065733B2063726320002073746F726564FE
:1016B0002073657474696E677320726574726965EE
:1016C000766564202800202863616C63756C617402
:1016D000656429210A0020213D2000454550524FD4
:1016E0004D20435243206D69736D61746368202DF2
:1016F000202873746F7265642920002053697A650D
:101700003A2000496E6465783A2000204D61726C81
:10171000696E3D563734290A00454550524F4D20D9
:1017200076657273696F6E206D69736D617463683D
:101730002028454550524F4D3D0048617264636F0B
:101740006465642044656661756C742053657474C7
:10175000696E6773204C6F616465640A0000007AEB
:101760004400007A440000C8420000C84200002043
:1017700043000020430000484400404444A00F00C0
:1017800000A00F0000C8000000204E00003A0A0030
:10179000546F6F6C2D6368616E67696E673A0A00FB
:1017A00020204D3835312058005A2D50726F626517
:1017B000204F666673657400204400204900202095
:1017C0004D33303420500020440020490020204D6B
:1017D0003330312050005049442073657474696E71
:1017E00067733A0A0020460020420020480020206B
:1017F0004D3134352053004D6174657269616C2040
:1018000068656174757020706172616D6574657270
:10181000733A0A0020204D34323020530041757451
:101820006F20426564204C6576656C696E673A0A84
:101830000020204D323036205800486F6D65206FF3
:1018400066667365743A0A00205400205300202015
:101850004D32303520420020453C6D61785F655F38
:101860006A65726B3E0020583C6D61785F785F6AF4
:1018700065726B3E20593C6D61785F795F6A657275
:101880006B3E205A3C6D61785F7A5F6A65726B3E91
:1018900000416476616E6365643A20423C6D696E16
:1018A0005F7365676D656E745F74696D655F757391
:1018B0003E20533C6D696E5F666565647261746558
:1018C0003E20543C6D696E5F74726176656C5F6634
:1018D000656564726174653E0020540020520020EA
:1018E000204D323034205000416363656C65726175
:1018F00074696F6E2028756E6974732F7332293A7C
:1019000020503C7072696E745F616363656C3E2049
:10191000523C726574726163745F616363656C3EAF
:1019200020543C74726176656C5F616363656C3EE4
:101930000A0020204D3230312058004D6178696D09
:10194000756D20416363656C65726174696F6E20AB
:1019500028756E6974732F7332293A0A0020204D5E
:101960003230332058004D6178696D756D206665A1
:10197000656472617465732028756E6974732F7362
:10198000293A0A0053746570732070657220756E71
:1019900069743A0A0020204D3230302044300A0069
:1019A00020204D32303020543120440020204D3250
:1019B00030302044002044697361626C65640A0021
:1019C00046696C616D656E742073657474696E67C9
:1019D000733A0020204D3134392043203B20556E8E
:1019E00069747320696E2043656C736975730A00AE
:1019F00020286D6D29002020473231202020203BF7
:101A000020556E69747320696E206D6D006F70656E
:101A10006E00545249474745524544003A20007AE7
:101A20005F6D696E00795F6D696E00785F6D696EDC
:101A3000005265706F7274696E6720656E647374AE
:101A40006F70207374617475730A00205A3A002015
:101A5000593A0020436F756E7420583A0020453A79
:101A600000205A3A0020593A00583A0000008743B3
:101A70000000A54300003E43000000000000A0C19C
:101A800000000000486F6D696E67204661696C65F3
:101A9000640000008C4200008C42000080405761CE
:101AA000726E696E673A20486F6D696E6720427585
:101AB0006D702044697669736F72203C20310A0092
:101AC0000202040000A0400000A04000000040000E
:101AD0000087430000AF4300003E430000000100C8
:101AE0000000010000800055555500000040003303
:101AF000333300AAAA2A004992240000002000C71C
:101B0000711C0099991900D1451700555515003BD6
:101B1000B113002449120011111100000010000F30
:101B20000F0F00E3380E0043790D00CCCC0C00C33E
:101B3000300C00E8A20B0064210B00AAAA0A007076
:101B40003D0A009DD80900427B090092240900DC6F
:101B5000D30800888808001042080000000800F040
:101B6000C107008787070075500700711C07003EFA
:101B7000EB0600A1BC0600699006006666060070D0
:101B80003E06006118060017F4050074D105005BDD
:101B9000B00500B290050062720500555505007849
:101BA000390500B81E0500050505004EEC04008748
:101BB000D40400A1BD040090A7040049920400C110
:101BC0007D0400EE690400C7560400444404005C30
:101BD0003204000821040041100400000004003F0A
:101BE000F00300F8E0030026D20300C3C30300CCD7
:101BF000B503003AA803000A9B0300388E0300C017
:101C00008103009F750300D0690300505E03001D2F
:101C100053030034480300913D030033330300169F
:101C2000290300381F030097150300300C0300033D
:101C30000303000BFA020049F10200BAE802005C5B
:101C4000E002002DD802002DD0020059C80200B0D9
:101C5000C0020031B90200DAB10200AAAA0200A053
:101C6000A30200BC9C0200FA9502005C8F0200DF18
:101C700088020082820200457C020027760200274B
:101C8000700200436A02007C640200D05E02003FE2
:101C9000590200C8530200206C696D6974656420A4
:101CA000746F2000204D617820004A65726B00FF40
:101CB000FDFCFAF8F6F4F2F0EEECEAE9E7E5E3E130
:101CC000E0DEDCDAD9D7D5D4D2D0CFCDCBCAC8C7E5
:101CD000C5C3C2C0BFBDBCBAB9B7B6B4B3B2B0AF6A
:101CE000ADACAAA9A8A6A5A4A2A1A09E9D9C9A99C4
:101CF000989795949392908F8E8D8B8A89888786FA
:101D000084838281807F7E7D7B7A79787776757413
:101D1000737271706F6E6D6C6B6A6968676665640B
:101D2000636261605F5E5D5C5B5A595858575655F7
:101D30005453525150504F4E4D4C4B4A4A494847CC
:101D40004646454443424241403F3E3E3D3C3B3B8C
:101D50003A39383837363535343332323130302F3E
:101D60002E2E2D2C2B2B2A292928272726252524E2
:101D7000232322212120201F1E1E1D1C1C1B1B1A79
:101D80001919181817161615151413131212111104
:101D9000100F0F0E0E0D0D0C0C0B0A0A0909080886
:101DA00007070606050504040303020201000020DC
:101DB000746F6F206C6F6E672065787472757369CD
:101DC0006F6E2070726576656E7465640A002063BC
:101DD0006F6C6420657874727573696F6E207072B1
:101DE0006576656E7465640A0024F4D43050C38E41
:101DF00020C2A24017828B7011127A910D816CD98A
:101E00000AA861E108C7586607615143061E4B5D89
:101E100005C145A7041A411104093D9803713931E0
:101E2000034036DB0265339102D4305402802E1D0C
:101E300002632CEE01752AC501B028A0011027818C
:101E4000018F2564012B244B01E0223401AC211FBA
:101E5000018D200D01801FFC00841EED00971DDF09
:101E600000B81CD200E61BC600201BBC00641AB2DE
:101E700000B219A8000A19A0006A189900D1179198
:101E80000040178B00B516840031167E00B315791B
:101E9000003A157300C7146F0058146A00EE1366F9
:101EA000008813630025135E00C7125B006C125795
:101EB0000015125400C111510070114F0021114B37
:101EC00000D61049008D1047004610440002104211
:101ED00000C00F4000800F3E00420F3C00060F3B49
:101EE00000CB0E3800930E37005C0E3500270E3401
:101EF00000F30D3200C10D3100900D3000600D2E49
:101F000000320D2D00050D2C00D90C2B00AE0C2934
:101F100000850C29005C0C2700350C27000E0C26D0
:101F200000E80B2400C40B2400A00B23007D0B232E
:101F3000005A0B2100390B2100180B2000F80A1F52
:101F400000D90A1E00BB0A1E009D0A1D00800A1D42
:101F500000630A1C00470A1B002C0A1B00110A1A06
:101F600000F7091A00DD091900C4091900AB0919A5
:101F700000920917007B091800630917004C091625
:101F80000036091600200916000A091500F5081583
:101F900000E0081400CC081400B8081400A40814C9
:101FA00000900813007D0812006B081300580812F7
:101FB000004608120034081100230811001208110D
:101FC0000001081100F0071000E0071000D0071012
:101FD00000C0071000B0070F00A107100091070E06
:101FE0000083070F0074070F0065070E0057070EE8
:101FF0000049070E003B070D002E070E0020070DBD
:102000000013070D0006070D00F9060C00ED060D84
:1020100000E0060C00D4060C00C8060C00BC060C40
:1020200000B0060C00A4060B0099060C008D060BF0
:102030000082060B0077060B006C060B0061060A97
:102040000057060B004C060A0042060A0038060A32
:10205000002E060A0024060A001A060A00100609C5
:102060000007060A00FD050900F4050900EB050953
:1020700000E2050900D9050900D0050900C70509D6
:1020800000BE050900B5050800AD050800A5050955
:10209000009C050800940508008C050800840508CC
:1020A000007C050800740508006C0507006505083C
:1020B000005D050700560508004E050700470507A7
:1020C000004005080038050700310507002A05070C
:1020D00000230507001C050600160507000F05076D
:1020E000000805060002050700FB040600F50407CA
:1020F00000EE040600E8040600E2040700DB040624
:1021000000D5040600CF040600C9040600C3040677
:1021100000BD040600B7040600B1040500AC0406C7
:1021200000A6040600A00405009B04060095040513
:1021300000900406008A040500850405008004065A
:10214000007A04050075040500700405006B0405A1
:102150000066040500610405005C040500570405E1
:1021600000520405004D0405004804050043040521
:10217000003E0404003A0405003504050030040460
:10218000002C04050027040400230405001E040499
:10219000001A04040016040500110404000D0404D0
:1021A00000090405000404040000040400FC030406
:1021B00000F8030400F4030400F0030400EC03043B
:1021C00000E8030400E4030400E0030400DC03046B
:1021D00000D8030400D4030400D0030400CC03049B
:1021E00000C8030300C503030024F404D9201BC462
:1021F0000C5C0E9804C4095F0265077101F405F9CF
:1022000000FB04B30048048700C10369005803556C
:102210000003034500BE023A008402310053022A43
:10222000002902250004022000E4011C00C8011955
:1022300000AF011700980114008401130071011010
:10224000006101100051010E0043010D0036010B29
:10225000002B010B0020010B00150109000C0109E6
:102260000003010800FB000800F3000800EB000772
:1022700000E4000600DE000600D8000600D20006DA
:1022800000CC000500C7000500C2000500BD000429
:1022900000B9000400B5000400B1000400AD000462
:1022A00000A9000400A5000300A20003009F000491
:1022B000009B0003009800030095000200930003B8
:1022C00000900003008D0002008B000300880002D4
:1022D000008600020084000300810002007F0002EB
:1022E000007D0002007B00020079000200770001FF
:1022F000007600020074000200720001007100020A
:10230000006F0002006D0001006C0002006A000115
:10231000006900020067000100660001006500011D
:102320000064000200620001006100010060000121
:10233000005F0002005D0001005C0001005B000125
:10234000005A000100590001005800010057000127
:102350000056000100550001005400010053000028
:102360000053000100520001005100010050000123
:10237000004F0001004E0000004E0001004D000122
:10238000004C0001004B0000004B0001004A00011E
:10239000004900010048000000480001004700011A
:1023A0000046000000460001004500000045000115
:1023B000004400010043000000430001004200000F
:1023C0000042000100410000004100010040000106
:1023D000003F0000003F0001003E0000003E000101
:1023E000003D0000003D0001003C0000003C0000FA
:1023F000003C0001003B0000003B0001003A0000EF
:10240000003A0001003900000039000100380000E6
:1024100000380000003800010037000000370001DC
:1024200000360000003600000036000100350000D4
:1024300000350000003500010034000000340000C9
:1024400000340001003300000033000000330001BD
:1024500000320000003200000032000100310000B4
:1024600000310000003100010030000000300000A9
:1024700000300001002F0000002F0000002F00009E
:10248000002F0001002E0000002E0000002E000191
:10249000002D0000002D0000002D0000002D000187
:1024A000002C0000002C0000002C0000002C00017B
:1024B000002B0000002B0000002B0000002B00016F
:1024C000002A0000002A0000002A0000002A000163
:1024D0000029000000290000002900000029000058
:1024E000002900010028000000280000002800004A
:1024F000002800000028000100270000002700003D
:10250000002700000027000000270001002600002F
:102510000026000000260000002600000026000122
:102520000025000000250000002500000025000017
:102530000025000000250001002400000024000008
:1025400000240000002400000024000100230000FB
:1025500000230000002300000023000000230000EF
:1025600000230000002300010022000000220000E0
:1025700000220000002200000022000000220001D2
:1025800000210000002100000021000000210000C7
:1025900000210000002100000021000100200000B7
:1025A00000200000002000000020000000200000AB
:1025B000002000000020000000200001001F00009B
:1025C000001F0000001F0000001F0000001F00008F
:1025D000001F0000001F0001001E0000001E000080
:1025E000001E0000001E00000039300000332500EE
:1025F0000087190000B00F0000DB080000BD0400D8
:1026000000740200003F0100000042656400453193
:1026100000626564002C2073797374656D20737497
:102620006F7070656421204865617465725F49440C
:102630003A200048656174696E67206661696C655F
:102640006400546865726D616C2052756E617761CB
:10265000790048656174696E67204661696C6564DC
:102660000048656174696E67206661696C65640025
:10267000546865726D616C2052756E617761790086
:10268000544845524D414C2052554E4157415900F6
:10269000546865726D616C2052756E617761790066
:1026A0004572723A204D415854454D50004D4158A5
:1026B00054454D50207472696767657265640045C2
:1026C00072723A204D494E54454D50004D494E547A
:1026D000454D5020747269676765726564004D38B6
:1026E0003420582059205A204500202F00204240F5
:1026F0003A0020403A0020573A007C3C3E5E2B3D99
:102700003F2F5B5D3B2C2A225C0043616E6E6F7431
:10271000206F70656E207375626469722000534487
:102720002063617264206F6B0A006F70656E526F78
:102730006F74206661696C65640A00766F6C756DF4
:10274000652E696E6974206661696C65640A005360
:102750004420696E6974206661696C0A004D3234E8
:10276000004D32332025730046696C652073656C1B
:1027700065637465640A002053697A653A200046EF
:10278000696C65206F70656E65643A2000454E4443
:1027900020535542524F5554494E450A002220704D
:1027A0006F73002220706172656E743A2200535577
:1027B00042524F5554494E452043414C4C20746180
:1027C000726765743A2200747279696E6720746F5B
:1027D0002063616C6C207375622D67636F64652084
:1027E00066696C6573207769746820746F6F206DFB
:1027F000616E79206C6576656C732E204D41582092
:102800006C6576656C2069733A310A002E0A006F98
:1028100070656E206661696C65642C2046696C6524
:102820003A200057726974696E6720746F20666978
:102830006C653A2000667265736800646F696E6744
:10284000002066696C653A20004E6F772000434F88
:102850004D4D554E49434154494F4E0044525952F3
:10286000554E004552524F525300494E464F004577
:1028700043484F001000C90210012C014001220101
:1028800070011801B0010E01F00104015002FA00BC
:10289000B002F0003003E600D003DC009004D20068
:1028A0007005C800A006BE000008B400B009AA0068
:1028B000D00BA000600E960060118C000015820005
:1028C00020197800C01D6E00A0226400B0275A00B5
:1028D000902C500000314600E0343C0010383200AB
:1028E000903A2800603C1E00A03D1400803E0A0083
:1028F000203F000000002100240027002A002D00B6
:102900003000330001010000040107010A0100004A
:102910002200250028002B002E0031003400020187
:102920000000050108010B01000020002300260023
:1029300029002C002F0032000001000003010601D5
:102940000901050505050705080808080202020235
:102950000A0A08080404040401010101010101013B
:102960000303030303030303040707070C0C0C0C06
:102970000C0C0C0C020202020606060606060606EF
:102980000B0B0B0B0B0B0B0B01021020200808107C
:1029900020401020408002010201080402010102CF
:1029A00004081020408080402010080402018004A8
:1029B0000201804020100804020108040201010203
:1029C000040810204080010204081020408000000C
:1029D0000A0B02090C0D0E08070304010000000099
:1029E00000000000000000000000000000000000E7
:1029F00000000000000000000000121110000000A4
:102A000000000000000000000000000000000000C6
:102A100000000000687474703A2F2F6D61726C6949
:102A20006E66772E6F726700322E302E310001FFF6
:102A3000FFFFFFFFFFFFFFFFFFFFFFFF0FFFFFFF96
:102A4000FFFFFFFFFFFFFFFFFFFF1E000000000072
:102A5000000000000007FFFF380000000000000039
:102A600000000003FFFF70000000000000000000F5
:102A70000001FFFF600000000000000000000000F7
:102A8000FFFF6000000000000000000000007FFF6A
:102A9000C000000000000000007800003FFFC00FF1
:102AA000C0FC00000000007818001FFFC03FE1FFDD
:102AB0000000000000783C000FFFC07FF3FF8000A3
:102AC000000000783C0007FFC0FFFFFFC0000000CF
:102AD00000783C0003FFC1F87F87E0000000007829
:102AE000000001FFC1F03F03E0000000007800009B
:102AF00000FFC1E01E01E01F0003E0783C03F07F0F
:102B0000C1E01E01E07FC00FF8783C07FC3FC1E048
:102B10001E01E1FFE01FFC783C0FFE1FC1E01E011B
:102B2000E3FFF03FFE783C1FFE0FC1E01E01E3F320
:102B3000F83F3E783C3F3F07C1E01E01E7E0FC7CE8
:102B40001F783C3E1F07C1E01E01E7C07C7C0F7868
:102B50003C3C0F03C1E01E01E7807C780F783C3CD1
:102B60000F03C1E01E01E7803C7800783C3C0F0376
:102B7000C1E01E01E7803C7800783C3C0F03C1E0D7
:102B80001E01E7803C7800783C3C0F03C1E01E0149
:102B9000E7C03C7800783C3C0F03C1E01E01E3E055
:102BA0003C78007C3C3C0F03C1E01E01E3FF3FF892
:102BB000007FBC3C0F03C1E01E01E1FF3FF8003F76
:102BC000BFFC0F03C1E01E01E0FF3FF8001FBFFC88
:102BD0000F03C1E01E01E07F3FF8000FBFFC0F03B1
:102BE000600000000000000000000000000760001E
:102BF000000000000000000000000006700000005F
:102C00000000000000000000000E3800000000007E
:102C1000000000000000001C1E000000000000007A
:102C20000000000000780FFFFFFFFFFFFFFFFFFF26
:102C3000FFFFFFF001FFFFFFFFFFFFFFFFFFFFFFB1
:102C4000FF802020506C616E6E657242756666650D
:102C50007242797465733A20002046726565204D92
:102C6000656D6F72793A2000436F6D70696C6564B1
:102C70003A2044656320333120323031390A002054
:102C80004C61737420557064617465643A2032300D
:102C900031392D31322D3234207C20417574686FEA
:102CA000723A2028556E61692C2064656661756CE6
:102CB0007420636F6E666967290A00322E302E31E8
:102CC0000A004D61726C696E0020536F6674776103
:102CD00072652052657365740A00205761746368D9
:102CE000646F672052657365740A002042726F77C3
:102CF0006E206F75742052657365740A00204578E4
:102D00007465726E616C2052657365740A00506F51
:102D100077657255700A0073746172740A00617588
:102D2000746F25632E6700473238585900657272F8
:102D30006F722077726974696E6720746F2066699C
:102D40006C650A00446F6E6520736176696E67205A
:102D500066696C652E0A004D323900456E647374E5
:102D60006F70730025532025632025632025632081
:102D7000256300205A3A0020593A0020583A00654D
:102D80006E6473746F7073206869743A20004D6FBD
:102D900076652025736D6D00004D6F766520302EB1
:102DA000316D6D004D6F766520316D6D004D6F7624
:102DB000652031306D6D004D6F7665204178697307
:102DC00000486F74656E6420746F6F20636F6C646D
:102DD000004578747275646572004D6F7665205A8F
:102DE000004D6F76652059004D6F76652058005074
:102DF00072696E742066726F6D204D656469610042
:102E0000496E76616C696420657874727564657268
:102E10000A0041637469766520457874727564654B
:102E2000723A2000454550524F4D204F4B0A004FFB
:102E3000666673657473204170706C6965640045E3
:102E400072723A20546F6F206661722100546F6F66
:102E5000206661722066726F6D20726566657265AC
:102E60006E636520706F696E740A00FFFFFF0000DB
:102E700000000000A0C100000000426564204C6515
:102E800076656C696E6720004661696C65642074C4
:102E90006F20656E61626C6520426564204C6576CA
:102EA000656C696E670A00426564204C6576656CE6
:102EB00020436F7272656374696F6E204D61747226
:102EC00069783A0064697300656E0043290A0061FD
:102ED000626C656420286D696E2074656D702000D9
:102EE000436F6C64206578747275646573206172D9
:102EF00065200020643A0020693A0020703A0020E2
:102F0000643A0020693A0020703A00496E76616C9C
:102F100069642065787472756465720A003A2000ED
:102F200020536572766F2000206F7574206F6620C5
:102F300072616E67650A00536572766F20002046E5
:102F40006C6F773A20004F4646004F4E00205800E5
:102F500020204D61783A2000200020204D696E3AF3
:102F60002000536F667420656E6473746F70733ADB
:102F70002000205400205200416363656C6572613B
:102F800074696F6E3A2050004665656472617465BD
:102F900000416363656C65726174696F6E004D31E9
:102FA000343520533C696E6465783E206F7574201B
:102FB0006F662072616E67652028302D31290A0006
:102FC0002F2F20004348414D4245525F54454D50FC
:102FD00045524154555245004D4F54494F4E5F4D57
:102FE0004F44455300544845524D414C5F50524F59
:102FF00054454354494F4E004155544F5245504F4C
:1030000052545F53445F5354415455530050524FF0
:103010004D50545F535550504F525400454D4552FA
:1030200047454E43595F5041525345520043415327
:10303000455F4C494748545F4252494748544E45C2
:10304000535300544F47474C455F4C4947485453EE
:1030500000534F4654574152455F504F5745520019
:103060004255494C445F50455243454E54004C45EF
:1030700056454C494E475F44415441005A5F5052B7
:103080004F4245004155544F4C4556454C00505217
:10309000494E545F4A4F420050524F475245535396
:1030A000004155544F5245504F52545F54454D5076
:1030B00000564F4C554D45545249430045455052DA
:1030C0004F4D0042494E4152595F46494C455F546D
:1030D00052414E534645520053455249414C5F5868
:1030E0004F4E5F584F4646004649524D5741524554
:1030F0005F4E414D453A4D61726C696E20322E3003
:103100002E3120284769744875622920534F555243
:1031100043455F434F44455F55524C3A6874747061
:10312000733A2F2F6769746875622E636F6D2F4D28
:1031300061726C696E4669726D776172652F4D615F
:10314000726C696E2050524F544F434F4C5F56453E
:103150005253494F4E3A312E30204D414348494E4B
:10316000455F545950453A3344617274612070721E
:10317000696E7465722045585452554445525F43F8
:103180004F554E543A3220555549443A636564656B
:10319000326132662D343161322D343734382D3975
:1031A0006231322D633535633632663336376666C3
:1031B0000A00334461727461207072696E746572C2
:1031C000204F46462E004D3131332053004D3131D2
:1031D000322053687574646F776E006F6666006F97
:1031E000286A2863285C284E2844454255473A00FF
:1031F0006F6B0050726F7465637465642050696E04
:103200000A002569730025696D2025697300256909
:10321000682025696D20256973002569642025696A
:10322000682025696D202569730025697920256945
:1032300064202569682025696D2025697300507216
:10324000696E742074696D653A20002E0A00446529
:103250006C6574696F6E206661696C65642C2046CC
:10326000696C653A200046696C652064656C65741C
:1032700065643A00286E6F2066696C6529004375A5
:103280007272656E742066696C653A200053442042
:103290007072696E74696E67206279746520004E81
:1032A0006F74205344207072696E74696E670A00EF
:1032B000456E642066696C65206C6973740A00420F
:1032C0006567696E2066696C65206C6973740A00B5
:1032D0004E6F204D6F76652E00436C69636B2074D2
:1032E0006F20526573756D652E2E2E00205A3A2080
:1032F0000020593A200042656420583A20005A20A4
:1033000050726F62652050617374204265640A00D8
:103310005A2050726F626520506173742042656458
:1033200000486F6D652058592066697273740A00F1
:10333000486F6D6520585920466972737400536C4C
:103340006565702E2E2E0020746F6F206C6F6E6777
:1033500020657874727573696F6E2070726576651A
:103360006E7465640A0020636F6C64206578747203
:103370007573696F6E2070726576656E7465640A28
:103380000050726F62696E67204661696C65640AFD
:103390000050726F62696E67204661696C656400F7
:1033A000205A3A200020593A200042656420583AB9
:1033B0002000486F6D6520257325732573204669AD
:1033C00072737400436F6F6C696E672E2E2E004807
:1033D000656174696E672E2E2E00452025530022EC
:1033E0000A00556E6B6E6F776E20636F6D6D616E48
:1033F000643A202200204500205900204D39322017
:103400005800205A002E0A006F70656E20666169B0
:103410006C65642C2046696C653A20009A0098001F
:1034200011241FBECFEFD1E2DEBFCDBF00E00CBF45
:1034300013E0A0E0B2E0E2E5FDE302E00BBF02C072
:1034400007900D92A436B107D9F725E1A4E6B3E0C1
:1034500001C01D92AE39B207E1F71AE1CFE0DAE11F
:1034600000E006C021970109802FFE010F940A1E7B
:10347000CE30D10780E00807A9F70F94EB090D942F
:10348000981E0C9400000F931F93CF93DF938091AD
:10349000330E90E0EC01CC0FDD1FCC0FDD1F8E0151
:1034A0000F5A1D4F880F991FFC01E55DFD4F60818C
:1034B0007181072E000C880B990B0F9488142AE059
:1034C00037ED43E25CE30F94E714C95CD14F2881E8
:1034D00039814A815B810F94E714F801608371831D
:1034E00082839383DF91CF911F910F9108950F9362
:1034F0001F93CF93DF938091BE0E90E0EC01CC0F31
:10350000DD1FCC0FDD1F8E010F5A1D4F880F991F35
:10351000FC01E55DFD4F60817181072E000C880B79
:10352000990B0F9488142AE037ED43E25CE30F9483
:10353000E714C95CD14F288139814A815B810F949E
:10354000E714F8016083718382839383DF91CF91C5
:103550001F910F9108950C94592480913C14882355
:10356000C1F0815080933C14E5EFF1E1882351F0E4
:103570008150990B2BE1289FF001299FF00D112418
:10358000E25DFC4E8BE1AAEDB1E101900D928A95CE
:10359000E1F720913C14211105C08091461480620E
:1035A0008093461481E090E0A0E0B0E0211103C0D8
:1035B00080E090E0DC018093F10D9093F20DA093F8
:1035C000F30DB093F40D1092E90D81E08093010E9C
:1035D00083E080934E020895CF93DF9300D01F9233
:1035E000CDB7DEB784EF91E0A0E0B0E089839A83A5
:1035F000AB83BC83BE016F5F7F4F80EA0E940C5299
:103600000F900F900F900F90DF91CF910895CF936F
:10361000DF9300D01F92CDB7DEB784EF91E0A0E03A
:10362000B0E089839A83AB83BC83BE016F5F7F4F19
:103630008CE30E940C520F900F900F900F90DF912F
:10364000CF910895CF93DF9300D01F92CDB7DEB70F
:1036500084EF91E0A0E0B0E089839A83AB83BC83E0
:10366000BE016F5F7F4F88E70E940C520F900F9052
:103670000F900F90DF91CF910895CF93DF9300D0FB
:103680001F92CDB7DEB78EEE92E0A0E0B0E0898366
:103690009A83AB83BC83BE016F5F7F4F8AE00E9439
:1036A0000C520F900F900F900F90DF91CF910895D3
:1036B000CF93DF9300D01F92CDB7DEB78EEE92E0AE
:1036C000A0E0B0E089839A83AB83BC83BE016F5FC7
:1036D0007F4F8AE50E940C520F900F900F900F9031
:1036E000DF91CF910895FC0184910895FC018081C0
:1036F00008958091831290918412891B8F7051F4E8
:103700008091A70E813031F08091461482FB88278A
:1037100080F9089581E00895CF93DF93EC01CB0108
:10372000BA010F94881420E030E048EC51E40F9483
:10373000E7140F94531C688379838A839B83DF91FA
:10374000CF910895CF93DF93EC01CB01BA010F9491
:1037500088142AE037ED43E25CE30F94E7146883B2
:1037600079838A839B83DF91CF910895CF93DF93F1
:10377000EC01CB01BA010F9488142AE037ED43E243
:103780005CE30F94E714688379838A839B83DF91DA
:10379000CF910895CF93DF93EC01CB01BA010F9441
:1037A00088142DEC3CEC4CEC5DE30F94E71468833B
:1037B00079838A839B83DF91CF910895CF93DF93A1
:1037C000EC01CB01BA010F94881420E030E048EC02
:1037D00051E40F94E714688379838A839B83DF9194
:1037E000CF910895CF93DF93EC01CB01BA010F94F1
:1037F0008814688379838A839B83DF91CF910895AE
:10380000CF93DF93EC01CB01BA010F948814688346
:1038100079838A839B83DF91CF910895CF93DF9340
:10382000EC01CB01BA010F9488142FE632E143E892
:103830005AE30F94E714688379838A839B83DF912B
:10384000CF910895CF93DF93EC01CB01BA010F9490
:1038500088140F94531C79836883DF91CF91089566
:10386000CF93DF93EC01CB01BA010F9488140F942E
:103870004E1C79836883DF91CF910895CF93DF93B6
:10388000EC01CB01BA010F94881423E333E343E244
:1038900050E40F94E7140F94531C6883DF91CF9189
:1038A000089511989091020187FD909591709093E1
:1038B0000001119A000011989091020186FD9095E7
:1038C000917090930001119A00001198909102015B
:1038D00085FD9095917090930001119A00001198C8
:1038E0009091020184FD9095917090930001119A3E
:1038F000000011989091020183FD90959170909332
:103900000001119A000011989091020182FD90959A
:10391000917090930001119A00001198909102010A
:1039200081FD9095917090930001119A000011987B
:1039300080910201817080930001119A0000089526
:10394000089590E080E008959091580CE92FF0E000
:10395000E75DFC4E80839F5F943040F49093580C59
:103960008091DC0D8F5F8093DC0D08951092580CD0
:10397000F7CF282F9091D10E833021F495FD0FC001
:1039800094FD0FC0892F90E0B0E0A0E004C0B69590
:10399000A795979587952A95D2F78170089581E02C
:1039A000089580E008950F9488140F944E1CCB0165
:1039B0000C940EC4CF92DF92EF92FF926B017C01C8
:1039C00020E030E0A9010F94821420E030E040E0D4
:1039D0005FE387FF04C020E030E040E05FEBC70119
:1039E000B6010F940A1B0F944E1CCB01FF90EF9071
:1039F000DF90CF900C940EC40F948814DBCF0F94FB
:103A0000881423E333E343E250E40F94E7140F9464
:103A1000531C862F0C9482CA0F9488140F94531C45
:103A2000CB010C9454CACF93DF93CDB7DEB720E21D
:103A3000488559856F818E810E9462E7DF91CF9121
:103A400008956091D40470E081E00C9465A66091C3
:103A5000D40470E081E00C9465A66091D40470E019
:103A600080E00C9465A66091D40470E080E00C9432
:103A700065A60C9473EC0C9473EC67E070E383E040
:103A80000D94AC056AE070E383E00D94AC0563E44B
:103A900071E382E00D94AC0567E471E381E00D947D
:103AA000AC056BE471E380E00D94AC05CF93DF933C
:103AB00000D01F92CDB7DEB70F9488142FE632E105
:103AC00043E85AE30F94E71469837A838B839C83DA
:103AD000CE0101960E94CDE70F900F900F900F90AE
:103AE000DF91CF910895CF92DF92EF92FF92CF9323
:103AF000C82F833029F467FD6091BE0E6093D8040F
:103B00000E9467EC6B017C0124EA30E74DE75FE33C
:103B10006091D0047091D1048091D2049091D3042B
:103B20000F94821487FD18C08AEF90E0A0E0B0E007
:103B30008C0D9D1DAE1DBF1D8093D9049093DA049A
:103B4000A093DB04B093DC04C0930202CF91FF90FA
:103B5000EF90DF90CF90089580E090E0DC01E8CF17
:103B600063E972E084E690E00E9409CB6AEB72E0C0
:103B700084E690E00C9409CB8111F2CF68EB71E000
:103B800084E190E00C9409CB0E944BB5F5CF0E94E4
:103B9000DFDDF2CFCF93DF9300D01F92CDB7DEB73A
:103BA0000F9488142AE037ED43E25CE30F94E714A6
:103BB00069837A838B839C83CE0101960E94DAC24B
:103BC0000F900F900F900F90DF91CF910895CF93AA
:103BD000DF9300D01F92CDB7DEB780E090E0A0E881
:103BE000B0E480936C0290936D02A0936E02B09348
:103BF0006F0289839A83AB83BC83CE0101960E94B6
:103C000069BC8091CC04823009F46DC0ACF5882386
:103C100009F447C0813009F459C080E090E0A8E47D
:103C2000B2E489839A83AB83BC83CE0101960E9460
:103C300069BC10926C0210926D0210926E0210928A
:103C40006F0280E090E0A0E8B0E489839A83AB83C0
:103C5000BC83CE0101960E9469BC8091CC048F5F29
:103C600085300CF04AC08093CC040F900F900F90D9
:103C70000F90DF91CF9108958330D1F1843069F6B0
:103C800080E090E0A7E0B3E4809364029093650243
:103C9000A0936602B093670280E090E0A5E2B3E4EF
:103CA0000CC080E090E0A0EFB1E4809364029093B8
:103CB0006502A0936602B0936702809368029093B6
:103CC0006902A0936A02B0936B02A7CF80E090E0F4
:103CD000A0E7B3E48093640290936502A093660228
:103CE000B09367029ACF80E090E0A6E9B3E4E5CF15
:103CF00080E090E0A0EFB1E4EDCF1092CC04B5CF1E
:103D0000CF930E949CD30E944BB5C82F882319F0F3
:103D100080E00E9420D58C2FCF912ECF0C9459A7F4
:103D20000C9459A70C9459A70C9459A7CF93DF93DF
:103D300000D01F92CDB7DEB70F9488142DEC3CEC69
:103D40004CEC5DE30F94E71469837A838B839C8347
:103D5000CE0101960E948EC00F900F900F900F9091
:103D6000DF91CF910895CF93DF9300D01F92CDB70D
:103D7000DEB70F9488142AE037ED43E25CE30F943A
:103D8000E71469837A838B839C83CE0101960E941A
:103D90003FC10F900F900F900F90DF91CF9108953A
:103DA0000C940BA70C940BA70C940BA70C940BA7CB
:103DB000CF93DF9300D01F92CDB7DEB70F94881456
:103DC00020E030E048EC51E40F94E71469837A83F3
:103DD0008B839C83CE0101960E94DEC10F900F90D1
:103DE0000F900F90DF91CF910895CF93DF9300D084
:103DF0001F92CDB7DEB70F94881469837A838B83C3
:103E00009C83CE0101960E94DEC10F900F900F900F
:103E10000F90DF91CF910895CF93DF9300D01F9241
:103E2000CDB7DEB70F94531C0F94861469837A8341
:103E30008B839C83CE0101960E94DEC10F900F9070
:103E40000F900F90DF91CF9108950F94881420E088
:103E500030E048EC51E40F94E714DECFAF92BF920C
:103E6000CF92DF92EF92FF920F931F93CF93DF9346
:103E70006B01E9014A3009F4B6C0453109F06BC065
:103E8000DB011296ED91FC91F280C681D781809181
:103E90000201809582708093000188E28A9500007B
:103EA000E9F7BF2CB29420EFB22230E1A32EAF0C81
:103EB00048E2E42E88EFF5DC8E2D8A950000E9F7C4
:103EC000BFE1BF1508F47EC08F2D80778068E9DCE4
:103ED0008B2DE7DC8E2D8A950000E9F780E8E1DC88
:103EE00080E0DFDC8E2D8A950000E9F78AEFD9DCCF
:103EF0008E2D8A950000E9F78E01005F1F4F8881A3
:103F0000807FCFDC89918295807FCBDCC017D10781
:103F1000B1F78E2D8A950000E9F7F394E0E1BE0E2B
:103F2000FA10C8CF80910201827080930001D601FF
:103F30001296CD91DC91CE010E944BED8111E1C131
:103F4000DF91CF911F910F91FF90EF90DF90CF9075
:103F5000BF90AF900895FB0102811381423309F4B1
:103F60008BC108F48FC1463409F47CC1473409F48D
:103F70007FC14B3329F589812B81D80112966C9131
:103F8000129713964C91213009F4D2C1233009F0D5
:103F90009CC138EF380F582F91E0431708F490E098
:103FA00041E0531708F040E031E0561708F430E0E4
:103FB000592F542B352309F0B0C1942309F0ADC11A
:103FC00081E0BECF80EE8F0D8068807F6ADC8F2D10
:103FD0008295807F66DC8E2D8A950000E9F780E867
:103FE00060DC80E87ECF80910101826080930101D6
:103FF00080910201827080930001809101018160B3
:104000008093010180910201817080930001099ADF
:10401000119A80910201809582708093000188E25C
:104020008A950000E9F788E790E0CEE9DFE0FE013D
:104030003197F1F70197D9F788EF33DC18E2812F38
:104040008A950000E9F780E22CDC80E02ADC812FF1
:104050008A950000E9F780E024DC80E822DC812FEB
:104060008A950000E9F780E01CDC80E11ADC812FF2
:104070008A950000E9F7CE010197F1F7CE0101978B
:10408000F1F7CE010197F1F7CE010197F1F7CE01DB
:104090000197F1F7CE010197F1F7CE010197F1F702
:1040A000CE010197F1F7CE010197F1F7CE0101970B
:1040B000F1F7CE010197F1F7CE010197F1F7CE01AB
:1040C0000197F1F7CE010197F1F72197F1F780E21F
:1040D000E8DB80E4E6DB812F8A950000E9F780E2E7
:1040E000E0DB80E6DEDB1A950000E9F710E0D0E0C7
:1040F000C8E28D2F80778068D4DB812FD2DB8C2FB4
:104100008A950000E9F780E8CCDB80E0CADB8C2FE1
:104110008A950000E9F78AEFC4DB8C2F8A950000AE
:10412000E9F790E21198809102018170809300017B
:10413000119A000011988091020181708093000112
:10414000119A000011988091020181708093000102
:10415000119A0000119880910201817080930001F2
:10416000119A0000119880910201817080930001E2
:10417000119A0000119880910201817080930001D2
:10418000119A0000119880910201817080930001C2
:10419000119A0000119880910201817080930001B2
:1041A000119A0000119880910201817080930001A2
:1041B000119A000011988091020181708093000192
:1041C000119A000011988091020181708093000182
:1041D000119A000011988091020181708093000172
:1041E000119A000011988091020181708093000162
:1041F000119A000011988091020181708093000152
:10420000119A000011988091020181708093000141
:10421000119A000011988091020181708093000131
:10422000119A00008C2F8A950000E9F7915009F04F
:1042300079CF88EF36DB8C2F8A950000E9F7DF5FB6
:10424000105FD03209F055CF80E02BDB80EC29DB0A
:10425000CA950000E9F78091020182708093000105
:1042600081E06ECED80115968C91888381E068CE6E
:10427000F80181818883FACFB901C8010E9435ED28
:1042800081E05ECE443171F0473109F099CE188259
:10429000F80182818983858181508A8383818B8320
:1042A00081E04ECED80115964C91159750E0440F01
:1042B000551F70E060E016968D919C910F94301E12
:1042C000C8010E9461ED81E03BCE481708F478CE2A
:1042D000861708F475CEFA80E12CD12C243070F4C6
:1042E0001DC0BE01C8010E9435ED898198819D0DD8
:1042F00098838E0D8983FF0C09F462CEF7FEF6CF0A
:10430000F0CF4D8150E0440F551F70E060E08E818A
:104310009F810F94301E81E013CEFA8030E0F901C6
:10432000E258FD4FD08026583D4FF901E080E6CF9E
:1043300058E0580F382F30CEDF92EF92FF920F9354
:104340001F93CF93DF93EC01D62E1CAD0BAD7C01F8
:1043500084E0E80EF11CE98DFA8DC7011995412F13
:10436000480F2D2D602FC7010E9477909BAD890FBC
:104370008BAF81E090E0DF91CF911F910F91FF9083
:10438000EF90DF9008958F929F92AF92BF92CF925D
:10439000DF92EF92FF920F931F93CF93DF93EC0185
:1043A0008B017A018A859B858617970731F0888172
:1043B00099810E9479EF1B870A87888599850196E4
:1043C00041F50C81DA808E81D80EA880B980D501A4
:1043D0005596ED91FC91C5011995080F10E0F70174
:1043E00021917F0121114FC08E819F81810F911DED
:1043F0009F838E8390E080E0DF91CF911F910F919A
:10440000FF90EF90DF90CF90BF90AF909F908F90F4
:104410000895CE80DF80F701008110E0002321F1B4
:10442000A880B980602FC5010E94878FD501519661
:104430001C9111954701BFEF8B1A9B0AF4018191E2
:104440004F01882351F0D50150969C91190F082FE8
:10445000682FC5010E94878FF1CF003281F0F501EE
:1044600083899189890F180FC10ED11C2885398540
:104470002C153D0508F0A5CF81E090E0BDCFD5011A
:1044800050968C91F0CF402F6D2DC5010E947790F2
:10449000D80E180FA4CFEF92FF920F931F93CF93D4
:1044A000DF93CDB7DEB72C970FB6F894DEBF0FBE03
:1044B000CDBF10912613009127132091DD04211107
:1044C0001BC046EB5AE0602F812F0E945DE090E018
:1044D00080E0180F109326130093271399272C962A
:1044E0000FB6F894DEBF0FBECDBFDF91CF911F9105
:1044F0000F91FF90EF900895E090F312F090F41276
:104500002FEE32E13A832983212F30E03C832B8345
:10451000202F30E03E832D8318861F827A8769879B
:104520001C861B869E012F5F3F4F43E75BE1BC016A
:10453000C7010E9423E0B7018FEE92E10E9479EF5C
:104540008F819885C6CFCF92DF92EF92FF920F9323
:104550001F93CF93DF936B017A01EC01CC58DC4FB2
:1045600028813CE0389F8001399F100D112427FFDE
:1045700024C0FB011182108288818F5F888388812B
:104580009801280F311D87FD3A95C90120917C12B1
:10459000F6012817190629F024F088818C300CF4D4
:1045A0003CC080819181049680349C4908F475C098
:1045B000F60180819181049672C088819801280F4C
:1045C000311D87FD3A95C90120917C1228171906E3
:1045D00099F294F28881A801480F511D87FD5A95E0
:1045E000FA01EE0FFF1FE40FF51FE05FFD4E808123
:1045F00087FFC2CF8881F801E80FF11D87FDFA958A
:10460000CF01EE0FFF1FE80FF91FE05FFD4E808125
:1046100060E08F770E9400EBAFCF8081918128818D
:10462000A801420F511D27FD5A959A01FA01EE0F7C
:10463000FF1FE20FF31FE05FFD4E21813281820FE9
:10464000931FF7019183808388819801280F311D82
:1046500087FD3A95F901EE0FFF1FE20FF31FE05FB0
:10466000FD4E808187FF20C08881080F111D87FDC6
:104670001A95F801EE0FFF1FE00FF11FE05FFD4EEE
:10468000808161E08F77DF91CF911F910F91FF9033
:10469000EF90DF90CF900C9400EB80E49CE9F70161
:1046A000918380838FEF8883DF91CF911F910F914A
:1046B000FF90EF90DF90CF900895FC01A081B18131
:1046C0001C92A281B3818C918F5F8C930280F381C5
:1046D000E02D90818CE0989F800D1124EBEEF2E1AB
:1046E00013AE84AF08950F931F93522F2091E912B8
:1046F0003091EA122817390721F19093EA1280933A
:10470000E9128B0130E020E00093F10D1093F20DDF
:104710002093F30D3093F40D4093E90D5093EA0D7F
:104720008354944C21F41092DE041092BE0482E073
:1047300080934E0281E08093010E1092DF0410926C
:10474000CB041F910F91089521E02093DE04609324
:10475000D0047093D1048093D2049093D30420E0CA
:1047600040E070E060E08091E30D9091E40DBBCFFC
:104770006DEC7CEC8CEC9CE3E7CF6DEC7CEC8CEC92
:104780009DE3E2CF60E070E080E89FE3DDCF60E092
:1047900070E080E291E4D8CF80914E02882331F01E
:1047A00041E06AE87CE082E00E9424E78091EF0E1D
:1047B0008770873069F41092CC0420E040E070E00C
:1047C00060E080E39DE28FDF81E08093CB04FFC94E
:1047D0000895CF93DF9380914E02882341F060913A
:1047E000E1047091E20441E081E00E9424E78091BD
:1047F000E00481111AC081E08093E004C091E912C5
:10480000D091EA1220E040E070E060E089EE93E2AF
:104810006ADF0E947CA71092E00420E040E070E094
:1048200060E0CE01DF91CF915ECFDF91CF9108950F
:10483000E091BE04E63010F581E08E0F8093BE0457
:104840004091F10D5091F20D6091F30D7091F40DC6
:104850009091E90D8091EA0D28E0E29FF00111248A
:10486000E257FB4F2091E9123091EA123183208305
:104870004283538364837583968387830895CF939C
:10488000DF93EC01D5DF20E040E070E060E0CE0196
:10489000DF91CF9128CF20E040E070E060E083E43A
:1048A00094EC21CF8AE09EE00E943891F4DF0C94D2
:1048B00090CBE091BE04EE2381F0E150E093BE0482
:1048C00088E0E89FF0011124E257FB4F6281738179
:1048D000278146818081918106CFDDCF8F929F9283
:1048E000AF92BF92CF92DF92EF92FF920F931F93FE
:1048F000CF93DF930E9477EAC091E90D85E0982E6F
:104900009C0E93EFE92E9EE0F92ED3E0DC1B23EE04
:10491000C22E2EE0D22E12E01C1B34E4A32E3FE068
:10492000B32E01E00C1B8C2E8194C11132C08091FA
:10493000EB0D8823B1F080914E02882359F081E07D
:104940009091EB0D911180E024E043E25FE0682D4F
:104950000E9462E7CF5F9C12E8CF84E08093EA0D6B
:104960000BC08091DE0D1092DE0D882321F3A1DFB4
:104970008091010E8823F9F2DF91CF911F910F9161
:10498000FF90EF90DF90CF90BF90AF909F908F906F
:104990000895C13051F58091EB0D813079F080910F
:1049A0004E028823B9F21F92BF92AF920F9381E01B
:1049B0009091EB0D913071F180E02CC08091DE0D73
:1049C0001092DE0D882359F36091540E7091550EAC
:1049D0004091580E80915A0E90915B0E0E94D9EA38
:1049E0008091010E8823D9F2C7CFC23009F044C0AC
:1049F0008091EB0D8230B1F080914E02882309F452
:104A0000A9CF1F92DF92CF921F9381E09091EB0D7F
:104A1000923091F68F9307D80F900F900F900F90D0
:104A20000F9098CF8091DE0D1092DE0D882321F338
:104A30004091580E6FEF7FEF80915A0E90915B0E70
:104A40000E94D9EA8091010E8823B1F295CF80911E
:104A5000DE0D1092DE0D8823B1F06091540E70913E
:104A6000550E4091580E90E080E00E94D9EA809166
:104A7000010E882341F080CFC33009F06BCF8091C5
:104A8000EB0D833021F380914E02882309F462CF2D
:104A90001F92FF92EF92DF9381E09091EB0D9330A4
:104AA00009F08ACFB7CF8F929F92AF92BF92CF92E9
:104AB000DF92EF92FF920F931F93CF93DF930E94A9
:104AC00077EAC091E90D85E0982E9C0E93E1E92EDE
:104AD0009FE0F92ED3E0DC1B23E0C22E2FE0D22E84
:104AE00012E01C1B38E3A32E3FE0B32E01E00C1BA9
:104AF0008C2E8194C11132C08091EB0D8823B1F0CE
:104B000080914E02882359F081E09091EB0D911134
:104B100080E024E043E25FE0682D0E9462E7CF5F1F
:104B20009C12E8CF84E08093EA0D0BC08091DE0DEB
:104B30001092DE0D882321F3BCDE8091010E8823C4
:104B4000F9F2DF91CF911F910F91FF90EF90DF90DD
:104B5000CF90BF90AF909F908F900895C13051F546
:104B60008091EB0D813079F080914E028823B9F26B
:104B70001F92BF92AF920F9381E09091EB0D913015
:104B800071F180E02CC08091DE0D1092DE0D882343
:104B900059F36091560E7091570E4091590E8091C5
:104BA0005C0E90915D0E0E94D9EA8091010E8823DF
:104BB000D9F2C7CFC23009F045C08091EB0D8230E9
:104BC000B9F080914E02882309F4A9CF1F92DF9299
:104BD000CF921F9381E09091EB0D923091F68F93DD
:104BE0000E94131D0F900F900F900F900F9097CF72
:104BF0008091DE0D1092DE0D882319F34091590E3D
:104C00006FEF7FEF80915C0E90915D0E0E94D9EA6C
:104C10008091010E8823A9F294CF8091DE0D10922D
:104C2000DE0D8823B1F06091560E7091570E4091C1
:104C3000590E90E080E00E94D9EA8091010E88230D
:104C400041F07FCFC33009F06ACF8091EB0D833004
:104C500021F380914E02882309F461CF1F92FF92C5
:104C6000EF92DF9381E09091EB0D933009F089CFC3
:104C7000B6CF9F92AF92BF92CF92DF92EF92FF9208
:104C80000F931F93CF93DF930E9477EAC091E90DB2
:104C9000DC2E85E0C82ECC0E14E01C1B03E00C1BA0
:104CA00082E0F82EFC1A81E0E82EEC1ABC2EB194BA
:104CB000C11153C08091EB0D8823B9F180914E0250
:104CC000882359F081E09091EB0D911180E024E070
:104CD00049E55EE06B2D0E9462E7D5E09C2E9D18B1
:104CE000AD2E8BEF8D0FDC1316C08093330E8091A9
:104CF000EB0D8D1709F4AAC080914E02882359F05C
:104D000081E09091EB0D9D1380E023E04EE45EE0A6
:104D1000692D0E9462E7D6E0AD12E2CFCF5FCC11E1
:104D2000C7CF87E08093EA0D0CC08091DE0D109212
:104D3000DE0D882319F2BDDD8091010E882309F470
:104D4000BDCFDF91CF911F910F91FF90EF90DF903A
:104D5000CF90BF90AF909F900895C13011F5809192
:104D6000EB0D813081F080914E02882309F4B5CF9C
:104D700081E09091EB0D913009F080E023E048EE66
:104D80005DE26E2DA8CF8091DE0D1092DE0D88239E
:104D900051F381E59DE173DD8091010E882319F3C4
:104DA000D0CFC23009F062C08091EB0D823081F02B
:104DB00080914E02882309F490CF81E09091EB0D11
:104DC000923009F080E023E041EE5DE26F2D83CF69
:104DD0008091DE0D1092DE0D882351F38CE49DE16D
:104DE0004EDD8091010E882319F3ABCF8091EB0D3E
:104DF000833081F080914E02882309F46ECF81E0E8
:104E00009091EB0D933009F080E023E04AED5DE2F4
:104E1000602F61CF8091DE0D1092DE0D882351F35B
:104E200087E49DE12CDD8091010E882319F389CF61
:104E30008091DE0D1092DE0D882311F182E49DE158
:104E40001EDD8091010E8823D9F07BCF8091DE0D8D
:104E50001092DE0D882309F44FCF8DE39DE10FDD25
:104E60008091010E882309F447CF6BCFC33009F43A
:104E7000BDCFC43009F031CF8091EB0D8430C1F249
:104E800080914E02882309F428CF81E09091EB0DA8
:104E9000943009F080E023E041ED5DE2612F1BCF0B
:104EA0006F927F928F929F92AF92BF92CF92DF923A
:104EB000EF92FF920F931F93CF93DF930E9477EAB5
:104EC000C091E90D1C2F85E0782E7C0E04E00C1BB0
:104ED00083E0F82EFC1A82E0E82EEC1A94E0A92E6A
:104EE0009CE0B92E24E5C22E2CE0D22E81E0982E33
:104EF0009C1A6C2E619485E0882E8C1AC1112FC0EB
:104F00008091EB0D882389F080914E02882309F46B
:104F100044C081E09091EB0D911180E024E045E6E2
:104F20005CE0662D0E9462E738C08091DE0D109231
:104F3000DE0D882349F3BDDC8091010E882321F327
:104F4000DF91CF911F910F91FF90EF90DF90CF9065
:104F5000BF90AF909F908F907F906F900895C130D9
:104F600009F076C08091EB0D813009F45FC080912B
:104F70004E02882391F01F92DF92CF929F9281E0A0
:104F80009091EB0D913009F080E08F930E94131DFA
:104F90000F900F900F900F900F900E94791B81112E
:104FA000CBC0D6E0C53009F0C8C08091EB0D85308C
:104FB00009F4A5C080914E028111B1C0D6E081E014
:104FC0008D0F8C1315C08091EB0D8C1709F4DBC08D
:104FD00080914E02882361F06C2F611B81E09091DB
:104FE000EB0D9C1380E023E04BE15CE00E9462E764
:104FF00082E08D0F8C1313C09091EB0D9C1709F478
:10500000D2C080914E02882351F06C2F611B81E049
:105010009C1380E023E049E05CE00E9462E7CF5F00
:10502000C7116CCFDD5FD093EA0D8ACF8091DE0D82
:105030001092DE0D882309F49ACFB0925A0CA092F8
:10504000590C29DC8091010E882309F490CF78CF88
:10505000C23009F0C4C08091EB0D823081F08091A4
:105060004E02882309F499CF81E09091EB0D9230A4
:1050700009F080E023E04BE45CE06E2D53CF80919B
:10508000DE0D1092DE0D882351F389E199E3F7DB01
:105090008091010E882319F353CF8091EB0D83305B
:1050A00081F080914E02882309F477CF81E09091BE
:1050B000EB0D933009F080E023E04EE35CE06F2DD0
:1050C00031CF8091DE0D1092DE0D882351F386EEF4
:1050D0009AE3D5DB8091010E882319F331CF8091BB
:1050E000DE0D1092DE0D882309F484C084EB9EE36C
:1050F000C6DB8091010E882309F47CC021CF80910A
:10510000DE0D1092DE0D882309F454CF84E690E47E
:10511000B6DB8091010E882309F44CCF11CF81E0DA
:105120009091EB0D953009F080E023E040E35CE0E6
:10513000682D0E9462E742CFD5E0DC1340CF80911A
:10514000EB0D8D1791F080914E02882309F437CF33
:105150006C2F611B81E09091EB0D9C1380E023E0AC
:1051600044E25CE00E9462E72ACF8091DE0D10925B
:10517000DE0D882341F389EB91E481DB8091010E00
:10518000882309F3DDCE8091DE0D1092DE0D882399
:1051900009F41ECF86E293E472DB8091010E88232E
:1051A00009F416CFCDCE8091DE0D1092DE0D88234E
:1051B00009F427CF20E040E070E060E08EE49DE25B
:1051C000DF91CF911F910F91FF90EF90DF90CF90E3
:1051D000BF90AF909F908F907F906F9084CAC330A4
:1051E00009F45BCFC43009F0D8CE8091EB0D843048
:1051F00009F475CF80914E02882309F4CECE81E068
:105200009091EB0D943009F080E023E049E35CE0FD
:10521000602F88CE2F923F924F925F926F927F9233
:105220008F929F92AF92BF92CF92DF92EF92FF92B6
:105230000F931F93CF93DF9300D01F92CDB7DEB7AC
:105240000E9477EA1091E90D212E85E0382E310E6B
:1052500094EFC92EDD24D394E12CF12C05E0011B41
:105260002EEE422E22E0522E612C712C84E0B82EBC
:10527000B11A83E0A82EA11A82E0982E911A81E03B
:10528000882E811A11113DC08091EB0D8823B9F051
:1052900080914E02882361F0622D619581E09091AA
:1052A000EB0D911180E024E04FEE5CE00E9462E79C
:1052B0001F5F3112E7CF86E08093EA0D0BC080912B
:1052C000DE0D1092DE0D882319F3F3DA8091010EC2
:1052D0008823F1F20F900F900F900F90DF91CF91F4
:1052E0001F910F91FF90EF90DF90CF90BF90AF9004
:1052F0009F908F907F906F905F904F903F902F90F6
:105300000895113069F58091EB0D8130A1F0809105
:105310004E02882369F28CEE9AE19F938F938FEC73
:105320009CE09F938F938F9281E09091EB0D913051
:1053300089F180E02FC08091DE0D1092DE0D882370
:1053400031F3C982DA82EB82FC82BE016F5F7F4F4C
:1053500080EA0E940C528091010E8823C1F2BACFDC
:10536000123009F0A7C08091EB0D8230E9F08091F6
:105370004E02882309F49CCF82E29BE19F938F9396
:1053800080EC9CE09F938F939F9281E09091EB0D36
:10539000923079F68F930E94131D0F900F900F900B
:1053A0000F900F900F9084CF8091DE0D1092DE0D44
:1053B0008823E9F2C982DA82EB82FC82BE016F5F48
:1053C0007F4F88E70E940C528091010E882379F26A
:1053D00081CF8091EB0D8330A9F080914E0288231C
:1053E00009F466CF8DE39BE19F938F9387EA9CE05E
:1053F0009F938F93AF9281E09091EB0D933009F0E2
:1054000098CFC8CF8091DE0D1092DE0D882329F34E
:1054100049825A826B827C82BE016F5F7F4F8AE035
:105420000E940C528091010E8823B9F253CF8091D3
:10543000EB0D8430A9F080914E02882309F438CF17
:1054400088E59BE19F938F938DE99CE09F938F93D9
:10545000BF9281E09091EB0D943009F06ACF9ACF22
:105460008091DE0D1092DE0D882329F349825A8245
:105470006B827C82BE016F5F7F4F8AE50E940C5277
:105480008091010E8823B9F225CF8091DE0D109214
:10549000DE0D8823E1F0C982DA82EB82FC82BE0154
:1054A0006F5F7F4F8CE30E940C528091010E882326
:1054B00071F010CF133009F48CCF143009F4B7CF4A
:1054C000153009F0F5CE8091EB0D8530F1F2809129
:1054D0004E02882309F4ECCE87E09BE19F938F93E3
:1054E00083EB9CE09F938F930F9381E09091EB0D62
:1054F000953009F01ECF4ECFAF92BF92CF92DF9280
:10550000EF92FF920F931F93CF93DF93EC015B0118
:105510008A01FB01199587FD16C0C82ED12CF12CEC
:10552000E12C2196F801C082D182E282F382CE0181
:10553000DF91CF911F910F91FF90EF90DF90CF906F
:10554000BF90AF900895982F907E903CA9F48F71F2
:1055500090E0B0E0A0E06C017D0126E0CC0CDD1C09
:10556000EE1CFF1C2A95D1F7CE010196F501199585
:105570008F73C82A2296D6CF982F907F903E11F530
:105580008F7090E0B0E0A0E06C017D0186E0CC0C73
:10559000DD1CEE1CFF1C8A95D1F7CE010196F501AA
:1055A00019958F73C82A96E0CC0CDD1CEE1CFF1CED
:1055B0009A95D1F7CE010296F50119958F73C82AF5
:1055C0002396B0CF982F987F903F79F5877090E021
:1055D000B0E0A0E06C017D01F6E0CC0CDD1CEE1C1F
:1055E000FF1CFA95D1F7CE010196F50119958F733D
:1055F000C82AA6E0CC0CDD1CEE1CFF1CAA95D1F736
:10560000CE010296F50119958F73C82AB6E0CC0C2D
:10561000DD1CEE1CFF1CBA95D1F7CE010396F501F7
:1056200019958F73C82A24967DCF982F9C7F983F19
:10563000E1F5837090E0B0E0A0E06C017D0156E000
:10564000CC0CDD1CEE1CFF1C5A95D1F7CE01019647
:10565000F50119958F73C82A66E0CC0CDD1CEE1C91
:10566000FF1C6A95D1F7CE010296F50119958F734B
:10567000C82A76E0CC0CDD1CEE1CFF1C7A95D1F715
:10568000CE010396F50119958F73C82AE6E0CC0C7C
:10569000DD1CEE1CFF1CEA95D1F7CE010496F50146
:1056A00019958F73C82A25963DCF982F9E7F9C3FD2
:1056B00009F049C0817090E0B0E0A0E06C017D018C
:1056C00086E0CC0CDD1CEE1CFF1C8A95D1F7CE01C8
:1056D0000196F50119958F73C82A96E0CC0CDD1C54
:1056E000EE1CFF1C9A95D1F7CE010296F501199593
:1056F0008F73C82A26E0CC0CDD1CEE1CFF1C2A95FB
:10570000D1F7CE010396F50119958F73C82A36E0BB
:10571000CC0CDD1CEE1CFF1C3A95D1F7CE01049693
:10572000F50119958F73C82A46E0CC0CDD1CEE1CE0
:10573000FF1C4A95D1F7CE010596F50119958F7397
:10574000C82A2696EFCE982F907C903841F4807C22
:10575000803869F42196CE01F5011995F8CF8E7F36
:105760008D3F28F02196CE01F5011995F8CFC12C77
:10577000D12C7601D7CE1F93CF93DF9300D01F9209
:10578000CDB7DEB710E0AE014F5F5F4F66E77BE15C
:10579000B3DE49815A816B817C81452B462B472B97
:1057A00011F01F5FF0CF812F0F900F900F900F908F
:1057B000DF91CF911F9108951F93CF93DF9300D076
:1057C0001F92CDB7DEB710E0AE014F5F5F4F63E7CA
:1057D0007BE192DE49815A816B817C81452B462B8E
:1057E000472B11F01F5FF0CF812F0F900F900F907C
:1057F0000F90DF91CF911F9108953F924F925F924A
:105800006F927F928F929F92AF92BF92CF92DF92D0
:10581000EF92FF920F931F93CF93DF9300D01F92CD
:10582000CDB7DEB748014090F10D5090F20D609079
:10583000F30D7090F40D411451046104710479F07A
:10584000E1E0141415040CF0E0E0E093CB041092B6
:10585000F10D1092F20D1092F30D1092F40D1091C3
:10586000CB043090DE0D1092DE0D311005C0E091BA
:105870004E02EE2309F46EC03C832B832A013B01C8
:105880005C01C40199DF082F80E0C114D10411F03C
:10589000C60192DF1A821982E114F104B1F4402F9B
:1058A00050E0282F30E0CA01820F931F46976CF416
:1058B00085E190E0841B950B821B930B97FD01966D
:1058C000959587958A8381E0898301E023E73BE111
:1058D000A401BE016F5F7F4FCE0102960E94F1CE00
:1058E000E114F10491F08A81882321F01A828981E0
:1058F0008F5F898300E026E73BE1A701BE016F5F70
:105900007F4FCE0102960E94F1CEC114D10459F00E
:1059100000E023E73BE1A601BE016F5F7F4FCE01B0
:1059200002960E94F1CE41E04127B30181E00E943E
:1059300012EFC50141DF412FB50194E1981B892F7A
:105940000E9412EF332031F0F201111102C0EB81FD
:10595000FC8119950F900F900F900F90DF91CF91D0
:105960001F910F91FF90EF90DF90CF90BF90AF907D
:105970009F908F907F906F905F904F903F90089591
:10598000AF92BF92CF92DF92EF92FF920F931F934D
:10599000CF93DF93CDB7DEB7ADB6BEB68091170E0D
:1059A0006AE07EE0882311F067E17EE0FB01019070
:1059B0000020E9F7CF01861B970B01962DB73EB764
:1059C000281B390B0FB6F8943EBF0FBE2DBF8DB705
:1059D0009EB701967C0180E2EDB7FEB78183C701D7
:1059E00001960F94691E84E1C82E8EE0D82E06E140
:1059F0001EE02BEA3AE142E554E262E27EE089E20F
:105A00009EE0FBDE0FB6F894BEBE0FBEADBEDF91CA
:105A1000CF911F910F91FF90EF90DF90CF90BF90AB
:105A2000AF900895CF92DF92EF92FF920F931F9362
:105A300087E8C82E8DE0D82EF12CE12C01EF1DE077
:105A40002BEA3AE14FE75BEC69E87DE08EE89DE008
:105A5000D4DE1F910F91FF90EF90DF90CF900895CB
:105A6000CF92DF92EF92FF920F931F9383E7C82E9E
:105A70008CE0D82EF12CE12C05E71CE02EE33BE472
:105A800047EE5DE160E87CE085E89CE0B6DE1F91D2
:105A90000F91FF90EF90DF90CF900895CF92DF921B
:105AA000EF92FF920F931F9386EFC82E8BE0D82EB4
:105AB000F12CE12C09E01CE02BEA3AE140E85EE140
:105AC00068EF7BE08FEF9BE098DE1F910F91FF90D6
:105AD000EF90DF90CF9008959CE0899F802D112456
